:020000040000FA
:100000000A128A11D72F7E088A007F0882000A12FE
:100010008A1103200A128A118000840A04087D06CE
:1000200003190034FF0A0319FE0A0728003083125F
:1000300003132005A80000302105A9008030220507
:10004000AA007F302305AB002B082A0429042804CA
:10005000031D2B282C2834280030A3000030A200D8
:100060000030A1000030A00000302405A8000030BE
:100070002505A90080302605AA007F302705AB00A2
:100080002B082A0429042804031D4728482850283F
:100090000030A7000030A6000030A5000030A4000A
:1000A000A31F5328542878280030A8000030A90046
:1000B0000030AA008030AB002008A8022108031CF1
:1000C000210F63286428A9022208031C220F692833
:1000D0006A28AA022308031C230F6F287028AB028A
:1000E0002B08A3002A08A2002908A1002808A000C4
:1000F000A71F7B287C28A0280030A8000030A9007A
:100100000030AA008030AB002408A8022508031C98
:10011000250F8B288C28A9022608031C260F91285E
:100120009228AA022708031C270F97289828AB02B9
:100130002B08A7002A08A6002908A5002808A40063
:100140008030A3068030A70627082302031DB228AB
:1001500026082202031DB22825082102031DB22809
:10016000240820020318B528B628B8280310B92897
:10017000031408007308803983120313A0002008B9
:10018000F8007308A0002007A1002108FA00F21F60
:10019000CA28CB28CC287A147A080319D028D12869
:1001A000E1287A0A031DD528D628DE280030F3007E
:1001B0000030F2000030F1000030F000F217F301DF
:1001C000E9280030F3000030F2000030F100003088
:1001D000F00077088039A0002008F9007908780637
:1001E0000319F328F428F52878177708A0002007CA
:1001F000A1002108F900F61FFE28FF280029791424
:1002000079080319042905291529790A031D0929E3
:100210000A2912290030F7000030F6000030F500FE
:100220000030F400F617F7011D290030F700003008
:10023000F6000030F5000030F4007A087902031867
:10024000222923296729781F262927292B2980304D
:10025000A0002008F8067A08A0002008FB00790812
:10026000A0002008FA007B08A0002008F900700810
:10027000A0002008FB007408A0002008F0007B0804
:10028000A0002008F4007108A0002008FB007508F9
:10029000A0002008F1007B08A0002008F5007208EB
:1002A000A0002008FB007608A0002008F2007B08D0
:1002B000A0002008F6007308A0002008FB007708C3
:1002C000A0002008F3007B08A0002008F700FB0135
:1002D0007908A000A1012108A3007A082002A20049
:1002E000031CA3032308803AFF0080307F02031D14
:1002F0007B291A302202031C7E297F29C02973081A
:10030000720471047004031D86298829013089292B
:10031000003083120313A0002008FB000030F3001C
:100320000030F2000030F1000030F0007908A00049
:100330002008FA00C6297B1C9E299F29AA297B0830
:1003400083120313A0000310200C0138A100210820
:10035000FB00AC290310FB0C701CAF29B029B1299C
:10036000FB17013083120313A000730DF30CF20C82
:10037000F10CF00CA00BB5290130A0002008FA0701
:1003800079087A02031CC529C6299B29781BC9292B
:10039000CA29192A7A08031DCE29CF29D829003065
:1003A000F3000030F2000030F1000030F000512B7B
:1003B0007408F007750803110318013E0319E129B9
:1003C000F107760803110318013E0319E829F20723
:1003D000770803110318013E0319EF29F307731C73
:1003E000F229F329D12A7B1CF629F729022A7B0856
:1003F00083120313A0000310200C0138A100210870
:10040000FB00042A0310FB0C701C072A082A092A87
:10041000FB17013083120313A000730DF30CF20CD1
:10042000F10CF00CA00B0D2A0130A0002008FA07F7
:10043000D12A7308803AFF007708803A7F02031DB3
:100440002B2A76087202031D2B2A75087102031DE0
:100450002B2A7408700203182E2A2F2A892AFF30AB
:1004600083120313A000FF30A100FF30A200FF3071
:10047000A3007408A4007508A5007608A6007708F4
:10048000A7007008A4027108031C710F482A492AAA
:10049000A5027208031C720F4E2A4F2AA602730887
:1004A000031C730F542A552AA7022408A007250805
:1004B0000318250F5C2A5D2AA10726080318260FBA
:1004C000622A632AA20727080318270AA30723081A
:1004D000F3002208F2002108F1002008F00080302B
:1004E000A0002008F806FB09FB0A7B08031D792AF7
:1004F0007A2A972A0130F007003003180130F107FB
:10050000003003180130F207003003180130F30700
:10051000972A7408F0027508031C750FF10276081B
:10052000031C760FF2027708031C770FF30273089F
:10053000720471047004031D9E2A9F2ACD2A7B0831
:10054000031DA32AA42ACD2A0030F3000030F200B4
:100550000030F1000030F000512B01308312031302
:10056000A0000310F00DF10DF20DF30DA00BB12A58
:10057000FB1FBB2ABC2ABD2A70147B1CC02AC12ABF
:10058000C42A0314FB0DC62A0310FB0D7A080319B5
:10059000CA2ACB2ACD2A0130FA02F21FD02AD12A48
:1005A000AD2AF901FB1FD52AD62AE42A7B087F3918
:1005B0000319DB2ADC2ADF2AF901F90AE42A701C74
:1005C000E22AE32AE42ADC2A79080319E82AE92A3C
:1005D0001F2B0130F007003003180130F107003005
:1005E00003180130F207003003180130F307731CC1
:1005F000FA2AFB2A1F2B700883120313A00071082C
:10060000A1007208A2007308A3000130A400230D0A
:10061000A30CA20CA10CA00CA40B072B2308F30025
:100620002208F2002108F1002008F0007A0A0319DC
:100630001A2B1B2B1F2B0130A0002008FA077A0A67
:100640000319232B242B292B7A08031D282B292B54
:10065000372B0030F3000030F2000030F1000030A2
:10066000F0007A08031D352B362B372BF8017A1C46
:100670003A2B3B2B3D2BF217432B7F308312031376
:10068000A0002008F2057A0883120313A0000310CB
:10069000200CA1002108F300F81F4F2B502B512BE9
:1006A000F317080083120313EF0083160313880166
:1006B0008601A0308400B83083120313DD000408E3
:1006C000DE000830DF005D08840083170008E000CA
:1006D000DD0A5E088400831360088000DE0ADF0BF9
:1006E000632BA8308400B030DD000408DE00083041
:1006F000DF005D08840083170008E000DD0A5E0863
:100700008400831360088000DE0ADF0B792BB03091
:100710008400A830DD000408DE000830DF005D083A
:10072000840083170008E000DD0A5E08840083135C
:1007300060088000DE0ADF0B8F2BB8308400A03009
:10074000DD000408DE000830DF005D088400831748
:100750000008E000DD0A5E08840083136008800062
:10076000DE0ADF0BA52BC03084009830DD000408C2
:10077000DE000830DF005D08840083170008E00019
:10078000DD0A5E088400831360088000DE0ADF0B48
:10079000BB2BC83084009030DD000408DE00083038
:1007A000DF005D08840083170008E000DD0A5E08B2
:1007B0008400831360088000DE0ADF0BD12BD03069
:1007C00084004830DD000408DE000830DF005D08EA
:1007D000840083170008E000DD0A5E0884008313AC
:1007E00060088000DE0ADF0BE72BD8308400403041
:1007F000DD000408DE000830DF005D088400831798
:100800000008E000DD0A5E088400831360088000B1
:10081000DE0ADF0BFD2BE03084003830DD000408F9
:10082000DE000830DF005D08840083170008E00068
:10083000DD0A5E088400831360088000DE0ADF0B97
:10084000132CE83084003030DD000408DE0008306E
:10085000DF005D08840083170008E000DD0A5E0801
:100860008400831360088000DE0ADF0B292CC0306F
:1008700084002830DD000408DE000830DF005D0859
:10088000840083170008E000DD0A5E088400600829
:100890008000DE0ADF0B3F2CC83084002030DD00F2
:1008A0000408DE000830DF005D08840083170008BC
:1008B000E000DD0A5E08840060088000DE0ADF0BCD
:1008C000542C653084001830DD000408DE00083048
:1008D000DF005D08840083170008E000DD0A5E0881
:1008E0008400831360088000DE0ADF0B692CD0309F
:1008F00084001030DD000408DE000830DF005D08F1
:10090000840083170008E000DD0A5E0884006008A8
:100910008000DE0ADF0B7F2CD83084000830FF0017
:100920008001840AFF0B902C8030DD005D08831667
:100930000317E400423083120313BD004830BC00AB
:100940000030BB000030BA004330A3007F30A2006B
:100950000030A1000030A0006F08DD00DE01DF01E3
:10096000E0016008F3005F08F2005E08F1005D0836
:10097000F00000300A128A1508220A128A11730840
:1009800083120313A7007208A6007108A50070085F
:10099000A4000A128A15C2220A128A1183120313B2
:1009A0002308C1002208C0002108BF002008BE00A3
:1009B0000A128A159F240A128A11831203133D0812
:1009C000D7003C08D6003B08D5003A08D400423096
:1009D000DB004830DA000030D9000030D8000A12BD
:1009E0008A154D210A128A118312031357088316A0
:1009F0000317E30083120313560883160317E2005C
:100A000083120313550883160317E100831203139F
:100A1000540883160317E000D830E6000130E700E1
:100A2000EA01BD2F83160317660883120313ED0036
:100A300083160317670883120313EE008316031748
:100A40006A08831203135C0784000A128A150020C7
:100A50000A128A11483A031D2E2D2F2D362DC8302B
:100A600083160317E6000030E7006E2E8316031787
:100A70006A08831203135C0784000A128A15002097
:100A80000A128A11553A031D462D472D4E2DA030CE
:100A900083160317E6000030E7006E2E8316031757
:100AA0006A08831203135C0784000A128A15002067
:100AB0000A128A114B3A031D5E2D5F2D662DD03030
:100AC00083160317E6000030E7006E2E8316031727
:100AD0006A08831203135C0784000A128A15002037
:100AE0000A128A11413A031D762D772D7E2DB030E2
:100AF00083160317E6000030E7006E2E83160317F7
:100B00006A08831203135C0784000A128A15002006
:100B10000A128A114F3A031D8E2D8F2D962DC0304B
:100B200083160317E6000030E7006E2E83160317C6
:100B30006A08831203135C0784000A128A150020D6
:100B40000A128A11453A031DA62DA72DAE2DD830C5
:100B500083160317E6000030E7006E2E8316031796
:100B60006A08831203135C0784000A128A150020A6
:100B70000A128A114D3A031DBE2DBF2DC62DB83065
:100B800083160317E6000030E7006E2E8316031766
:100B90006A08831203135C0784000A128A15002076
:100BA0000A128A11443A031DD62DD72DDE2DE030CE
:100BB00083160317E6000030E7006E2E8316031736
:100BC0006A08831203135C0784000A128A15002046
:100BD0000A128A11533A031DEE2DEF2DF62DC03067
:100BE00083160317E6000130E7006E2E8316031705
:100BF0006A08831203135C0784000A128A15002016
:100C00000A128A11523A031D062E072E0E2EE830C4
:100C100083160317E6000030E7006E2E83160317D5
:100C20006A08831203135C0784000A128A150020E5
:100C30000A128A11493A031D1E2E1F2E262EA83095
:100C400083160317E6000030E7006E2E83160317A5
:100C50006A08831203135C0784000A128A150020B5
:100C60000A128A11203A031D362E372E3E2ED83016
:100C700083160317E6000130E7006E2E8316031774
:100C80006A08831203135C0784000A128A15002085
:100C90000A128A112A3A031D4E2E4F2E562EC830A4
:100CA00083160317E6000130E7006E2E8316031744
:100CB0006A08831203135C0784000A128A15002055
:100CC0000A128A11403A031D662E672E6E2ED0300E
:100CD00083160317E6000130E7006E2E8316031714
:100CE000E801831603176508013E83120313DD0034
:100CF0005D0883160317E500E901640883120313F6
:100D0000DD0083160317690A83120313892E03106B
:100D1000DD0CFF3E031D872E5D08FF3A860083161B
:100D200003176908680783120313DD00DE01DE0D77
:100D30005E08803AFF0080307F02031DA12E08303C
:100D40005D020318A42EA52ED92E8316031768085A
:100D5000831203136D07DE006E08DD000318DD0A41
:100D600083160317E81FB72E83120313DD038312C4
:100D700003135D08DF00831603176908831203134A
:100D80005E07E1005F08E0000318E00A831603171E
:100D9000E91FCD2E83120313E003831203136008AF
:100DA000E200610884008317621C83130008880036
:100DB000402F831603176908680783120313DD00A9
:100DC000DE01DE0D08305D065E04031DE82EE92E0F
:100DD000EB2E8801402F83160317690868078312DA
:100DE0000313DD00DE01DE0D5E08803AFF00803077
:100DF0007F02031DFD2E09305D02031C002F012F11
:100E0000402F831603176808660783120313DE005A
:100E100083160317670883120313DD000318DD0A26
:100E200083160317E81F172F83120313DD038312A2
:100E300003135D08DF008316031769088312031389
:100E40005E07E1005F08E0000318E00A831603175D
:100E5000E91F2D2F83120313E0038312031360088D
:100E6000E2006108F73EE30062080318013EFF3E1E
:100E7000E400630884008317641C8313000888005F
:100E8000073083120313DE007C30DD00DD0B462FBC
:100E9000DE0B462F0000013083120313DD005D08D6
:100EA00083160317E90708306902031C582F592FCE
:100EB0007D2E650883120313DD00DE01DF01E001F2
:100EC0006008F3005F08F2005E08F1005D08F000C2
:100ED00001300A128A1508220A128A117308831235
:100EE0000313A3007208A2007108A1007008A000FB
:100EF00083160317630883120313A70083160317CF
:100F0000620883120313A600831603176108831275
:100F10000313A50083160317600883120313A400AC
:100F20000A128A1116200A128A11031C982F992F6F
:100F3000712E83160317E5011A3083120313DE00A6
:100F4000F730DD00DD0BA22FDE0BA22FA72F013023
:100F500083120313DD005D0883160317E8070930C9
:100F60006802031CB42FB52F712E013083120313B6
:100F7000DD005D0883160317EA07831203135C087C
:100F80000A128A1530210A128A11831603176A0879
:100F900083120313DD00DE0171085E02031DD22FF0
:100FA00070085D02031CD52FD62F122D0800831761
:100FB000C030FD000930FE009830FF009030840002
:100FC0000A128A1107200A128A115030FD000930D6
:100FD000FE00C830FF00103084000A128A1107207A
:100FE0000A128A1183120317D001D101D201D30151
:100FF000D401D501D601D70183010A128A151E2911
:1010000008308A000408840A820700344D344F34C3
:10101000483441344D344534443420342034413450
:0A10200048344D34453444340034A4
:10123C00013083160317EB006B0883120313DC00D9
:10124C00F0300A128A1152230A128A151E290A1228
:10125C008A110028F3007308F2007208F4003A298E
:10126C000130F2007208F407740884000A128A151F
:10127C0000200A128A15003A031D452946293629F1
:10128C0073087402F000F101F01BF10308008030C8
:10129C0083120313D7065B08F3005A08F2005908AF
:1012AC00F1005808F0005708F7005608F6005508EA
:1012BC00F5005408F4000A128A11BA200A128A1591
:1012CC00730883120313D7007208D6007108D50077
:1012DC007008D4000800F800F401F5017008F20061
:1012EC00F3017208F6007308F700781C7E297F2939
:1012FC0085297608F4070318F50A7708F5070130F5
:10130C000310F60DF70DFF3E031D86290310F80C94
:10131C007808031D922993297B297508F10074081C
:10132C00F0000800FF34FF34183418341834183423
:10133C00FF34FF343C347E34C334C334C334C3343D
:10134C007E343C34FF34FF340634183418340634FD
:10135C00FF34FF34C03438341E341B341B341E3479
:10136C003834C034C334C334C334FF34FF34C334CF
:10137C00C334C3343F343F34C034C034C034C034BD
:10138C003F343F3430347634C634C034C034C63481
:10139C00763430340E341F343E34FC343E341F3437
:1013AC000E3400340C341E343C347C347C343C34E9
:1013BC001E340C34DF34DB34DB34DB34DB34DB3431
:1013CC00FB34FB34FF34FF341B341B343B347B3491
:1013DC00DE349C34FF34FF34C334C334C334C334DD
:1013EC007E343C34FF34FF34DB34DB34DB34DB342D
:1013FC00DB34DB34FF34FF34183424346634C33428
:10140C0081348134F800780803190D2A0E2A222A17
:10141C00F31F112A122A222A7009FA007109FB0003
:10142C007209FC007309FD00FA0A0319FB0A03197F
:10143C00FC0A0319FD0A2A2A7308FD007208FC0035
:10144C007108FB007008FA007308720471047004D0
:10145C00031D312A322A3B2A0030F3000030F200FF
:10146C000030F1000030F000C12A9630F40074080E
:10147C00F9004D2A0130F4007408F907013003100B
:10148C00FD0CFC0CFB0CFA0CFF3E031D452AFE3038
:10149C007D05031D522A532A402A6F2A0130F4007D
:1014AC007408F9070130FA07003003180130FB0704
:1014BC00003003180130FC07003003180130FD0721
:1014CC0001300310FD0CFC0CFB0CFA0CFF3E031D51
:1014DC00672AFF307D05031D742A752A542A812A38
:1014EC000130F9020130F4000310FA0DFB0DFC0D74
:1014FC00FD0DF40B7A2AFC1B842A852A8B2A0230D8
:10150C00790203188A2A8B2A762A79188E2A8F2A2E
:10151C00972AFF30FA05FF30FB057F30FC05FF30C2
:10152C00FD050310F90C7908F400F501F601F7013B
:10153C0018300310F40DF50DF60DF70DFF3E031DDD
:10154C009F2A7408FA047508FB047608FC047708D3
:10155C00FD0478080319B32AB42AB92AF31FB72A51
:10156C00B82AB92AFD177D08F3007C08F2007B0825
:10157C00F1007A08F0000800831203132708803961
:10158C00A8002808B1002708A8002807A9002908E6
:10159C00B800A61FD22AD32AD42A38143808031923
:1015AC00D82AD92AE92A380A031DDD2ADE2AE62A96
:1015BC000030A7000030A6000030A5000030A400C9
:1015CC00A617A701F12A0030A7000030A6000030B2
:1015DC00A5000030A40023088039A8002808B10613
:1015EC002308A8002807A9002908B900A21FFF2A70
:1015FC00002B012B391439080319052B062B162B3C
:10160C00390A031D0A2B0B2B132B0030A3000030BF
:10161C00A2000030A1000030A000A217A3011E2BD5
:10162C000030A3000030A2000030A1000030A00068
:10163C002308220421042004031D252B262B3F2BD9
:10164C000030A7000030A6000030A5000030A40038
:10165C008030A6047F30A7043108A8002808A7040E
:10166C002708A3002608A2002508A1002408A00032
:10167C009E2C3808031D432B442B4D2B0030A3000C
:10168C000030A2000030A1000030A0009E2C3808D1
:10169C00A800A9012908AB0039082802AA00031CDC
:1016AC00AB032A087F3EB2002B080318013E003E14
:1016BC00B3002708B0002608AF002508AE002408A8
:1016CC00AD000030A7000030A6000030A5000030AF
:1016DC00A4000030B7000030B6000030B500003078
:1016EC00B400B901C32B390803197D2B7E2B9E2B1B
:1016FC000130A8000310AD0DAE0DAF0DB00DA80B51
:10170C00802B0130A8000310A40DA50DA60DA70D6C
:10171C00A80B892BB71F932B942B952B24140130DA
:10172C00A8000310B40DB50DB60DB70DA80B972B73
:10173C0023083002031DAC2B22082F02031DAC2BF7
:10174C0021082E02031DAC2B20082D02031CAF2BED
:10175C00B02BBF2B37172008AD022108031C210F1B
:10176C00AE022208031C220FAF022308031C230F16
:10177C00B0020130A8002808B9071A303902031C3E
:10178C00C82BC92B792B30082F042E042D040319D8
:10179C00D02BD12BF02B3414F02B0130A8000310DC
:1017AC00A40DA50DA60DA70DA80BD52BB71FDF2BD0
:1017BC00E02BE12B24140130A8000310B40DB50D5F
:1017CC00B60DB70DA80BE32BFF30B2070318B30A05
:1017DC00FF30B307A61FF32BF42BD32BB901B71F84
:1017EC00F82BF92B152CFF303405A800FF303505EC
:1017FC00A900FF303605AA007F303705AB002B0857
:10180C002A042904280403190C2C0D2C102CB901C2
:10181C00B90A152C241C132C142C152C0D2C39083E
:10182C000319192C1A2C4B2C0130A4070030031867
:10183C000130A507003003180130A607003003184B
:10184C000130A707271C2B2C2C2C4B2C2408A80070
:10185C002508A9002608AA002708AB000130AC0017
:10186C002B0DAB0CAA0CA90CA80CAC0B362C2B0812
:10187C00A7002A08A6002908A5002808A400013002
:10188C00B2070318B30A0030B3073308803AFF00DD
:10189C0080307F02031D542CFF303202031C572C66
:1018AC00582C662CFF3083120313B2000030B300A7
:1018BC000030A7000030A6000030A5000030A400C6
:1018CC00831203133308803AFF0080307F02031D1C
:1018DC00712C013032020318742C752C822C83125B
:1018EC000313B201B3010030A7000030A600003092
:1018FC00A5000030A400B101831203133208A80024
:10190C002808B800381C8B2C8C2C8E2CA617922CEB
:10191C007F30A8002808A6053808A8000310280C5A
:10192C00A9002908A7003108A8002808A704362B0D
:10193C000800831203133D088039C2004208C70017
:10194C003D08C2004207C3004308CD00BC1FAF2CAA
:10195C00B02CB12C4D144D080319B52CB62CC52C3C
:10196C004D0A031DBA2CBB2CC32C0030BD0000301B
:10197C00BC000030BB000030BA00BC17CD2C0030CE
:10198C00BD000030BC000030BB000030BA00410884
:10199C008039C2004208C7064108C2004207C30092
:1019AC004308CC00C01FDB2CDC2CDD2C4C144C0869
:1019BC000319E12CE22CF12C4C0A031DE62CE72C2C
:1019CC00EF2C0030C1000030C0000030BF000030F0
:1019DC00BE00C017F92C0030C1000030C000003030
:1019EC00BF000030BE004C080319FD2CFE2C032D4B
:1019FC004D08031D022D032D0C2D0030BD000030B1
:101A0C00BC000030BB000030BA00FF2F3A08C20007
:101A1C004208F00040080A128A1571210A128A1530
:101A2C00710883120313D3007008D2005208C2004D
:101A3C00C301C401C5014508CB004408CA004308D2
:101A4C00C9004208C8005308C200C301C401C50143
:101A5C004508D1004408D0004308CF004208CE000E
:101A6C003B08C2004208F0003F080A128A15712197
:101A7C000A128A15710883120313D3007008D2005E
:101A8C005208C200C301C401C5014208C80743087B
:101A9C0003110318013E0319542DC90744080311FF
:101AAC000318013E03195B2DCA07450803110318DF
:101ABC00013E0319622DCB075308C200C301C401B8
:101ACC00C5014208CE07430803110318013E031950
:101ADC00702DCF07440803110318013E0319772D0D
:101AEC00D007450803110318013E03197E2DD107B9
:101AFC003C08C2004208F0003E080A128A15712107
:101B0C000A128A15710883120313D3007008D200CD
:101B1C005208C200C301C401C5014208C8074308EA
:101B2C0003110318013E03199C2DC9074408031126
:101B3C000318013E0319A32DCA0745080311031806
:101B4C00013E0319AA2DCB075308C200C301C401DF
:101B5C00C5014208CE07430803110318013E0319BF
:101B6C00B82DCF07440803110318013E0319BF2DEC
:101B7C00D007450803110318013E0319C62DD107E0
:101B8C000830C2000310C80DC90DCA0DCB0DC20B15
:101B9C00C82D3B08C2004208F0003E080A128A1504
:101BAC0071210A128A15710883120313D30070086D
:101BBC00D2005208C2005308C300C401C501420838
:101BCC00C807430803110318013E0319EE2DC9077A
:101BDC00440803110318013E0319F52DCA074508E3
:101BEC0003110318013E0319FC2DCB073A08C20060
:101BFC004208F0003F080A128A1571210A128A1550
:101C0C00710883120313D3007008D2005208C2006B
:101C1C005308C300C401C5014208C8074308031197
:101C2C000318013E03191B2EC9074408031103189E
:101C3C00013E0319222ECA07450803110318013E61
:101C4C000319292ECB070830C2000310C80DC90D8B
:101C5C00CA0DCB0DC20B2B2E3A08C2004208F00065
:101C6C003E080A128A1571210A128A15710883120C
:101C7C000313D3007008D2005208C2005308C300EB
:101C8C00C401C5014208C807430803110318013EEB
:101C9C000319512EC907440803110318013E0319F7
:101CAC00582ECA07450803110318013E03195F2E6D
:101CBC00CB073B08C2004208F00040080A128A1504
:101CCC0071210A128A15710883120313D30070084C
:101CDC00D2005208C2005308C300C401C501420817
:101CEC00CE07430803110318013E03197E2ECF07BC
:101CFC00440803110318013E0319852ED00745082B
:101D0C0003110318013E03198C2ED1073C08C200A5
:101D1C004208F0003F080A128A1571210A128A152E
:101D2C00710883120313D3007008D2005208C2004A
:101D3C005308C300C401C5014208CE074308031170
:101D4C000318013E0319AB2ECF07440803110318E7
:101D5C00013E0319B22ED007450803110318013EAA
:101D6C000319B92ED1073C08C2004208F000400804
:101D7C000A128A1571210A128A157108831203132B
:101D8C00D3007008D2005208C2005308C300C4012B
:101D9C00C50108300310C20DC30DC40DC50DFF3EA7
:101DAC00031DD02E4208CE07430803110318013E31
:101DBC000319E12ECF07440803110318013E031940
:101DCC00E82ED007450803110318013E0319EF2E26
:101DDC00D1074808C2004908C3004A08C4004B0890
:101DEC00C50018300310C50CC40CC30CC20CFF3E4C
:101DFC00031DF82E4208CE07430803110318013EB9
:101E0C000319092FCF07440803110318013E0319C6
:101E1C00102FD007450803110318013E0319172F83
:101E2C00D1070830C2000310C80DC90DCA0DCB0D67
:101E3C00C20B192F4D084C07C200C301C30D420839
:101E4C00823ED20043080318013EFF3ED3004B2FC5
:101E5C000130C2000310CE0DCF0DD00DD10DC20B31
:101E6C00302FCB1F3A2F3B2F3C2F4E140130C2008A
:101E7C000310C80DC90DCA0DCB0DC20B3E2FFF3080
:101E8C00D2070318D30AFF30D307D01F4E2F4F2F82
:101E9C002E2FCC01CB1F532F542F702FFF30480502
:101EAC00C200FF304905C300FF304A05C4007F3033
:101EBC004B05C50045084404430442040319672F2D
:101ECC00682F6B2FCC01CC0A702F4E1C6E2F6F2FEE
:101EDC00702F682F4C080319742F752FA62F013003
:101EEC00CE07003003180130CF0700300318013043
:101EFC00D007003003180130D107511C862F872FD3
:101F0C00A62F4E08C2004F08C3005008C400510849
:101F1C00C5000130C600450DC50CC40CC30CC20C69
:101F2C00C60B912F4508D1004408D0004308CF00C0
:101F3C004208CE000130D2070318D30A0030D30771
:101F4C005308803AFF0080307F02031DAF2FFF3013
:101F5C005202031CB22FB32FBE2F7F3083120313F8
:101F6C00D1008030D0000030CF000030CE00F32FF5
:101F7C00831203135308803AFF0080307F02031D45
:101F8C00C92F013052020318CC2FCD2FD92F00307E
:101F9C0083120313D1000030D0000030CF0000308A
:101FAC00CE00C701F32F831203135208C20042085C
:101FBC00CD00FF30CE05FF30CF057F30D00500308F
:101FCC00D1054D1CEA2FEB2FEC2FD0174D08C2007A
:101FDC000310420CC3004308D1004708C20042085A
:101FEC00D1045108BD005008BC004F08BB004E087E
:041FFC00BA0008001F
:02400E00313F40
:00000001FF
